:1018BF00746573740D0A006164633D25640D0A003D
:0B120900430115FF18BF42012E00003A
:0300230002000ECA
:0D000E00309904C299C209309802C298329C
:10188300759850E4F589758BE8758DFFD28E758E4A
:0418930040C2092224
:080003002009FDD2098F9922AA
:1017D7009000ABEBF0A3EAF0A3E9F09000ABE0FBDD
:1017E700A3E0FAA3E0F91205AE60179000ABA3E4FB
:1017F70075F001120618A9F0FA1205AEFF120003E0
:0318070080D92263
:0E18CF0000007F327E097D80DDFEDEFCDFFA48
:0118DD0022E8
:0A18F60053B2FB43B10475DE222259
:10175C009000ABEDF044C0F5BC0000E5BC30E5FBFF
:10176C0053BCDFAFBDEFFFADBEEDCF8FF01206590E
:10177C009000ABE044C0F5BC0000E5BC30E5FB5389
:0F178C00BCDFAFBDEFFFADBEEDCF8FF002065952
:081900007F6C7E91DEFEDFFC2E
:0119080022BC
:10139F00121883D2ACD2AF1218F675CAFFE4F5C992
:1013AF00D2CCD390012FE0946490012EE0940040B2
:1013BF0004E4F0A3F090012FE004F0700690012EEA
:1013CF00E004F07B017A01792C7D0212175C90000A
:1013DF00AE74FFF0A37418F0A374C6F090012CE064
:1013EF00FFA3E09000B1CFF0A3EFF07A01791812CC
:1013FF0008C97B017A0179181217D790012CE0FEEA
:10140F00A3E0FFC39448EE94035004C2CC8093D35F
:10141F00EF944DEE9403408A90012FE09446900193
:10142F002EE094005008D2CC1200000213B1C2CCAF
:06143F001200000213B1CF
:10180A0075BCCF0000E5BC30E5FB53BCDF75BCCF2F
:10181A000000E5BC30E5FB53BCDFAFBDEFFEADBE5B
:08182A00EDFFAC06E4020342ED
:0C1214004200F727104400DB4576E000A4
:10122000410131044101320054013300000000004B
:10123000000000000000000000000000000000416D
:031240000130007A
:10189700759850E4F589758BE0758DFED28E758E3F
:0418A70040C20A220F
:101243004100FD00420103D4CD42010700DC42000E
:10125300F903294200FF00DC42010505DC4100FBE4
:01126300008A
:10185900438E4053890F758BD7758DFDC28FD28EFC
:05186900D2ABD2AF225A
:10186E00438E805389F0758AD7758CFDC28DD28CCC
:05187E00D2A9D2AF2247
:03001B000216BB0F
:1016BB00C0E0C083C082C0D090010BE024FFF0904B
:1016CB00010AE034FFF0E07002A3E0701C90010F00
:1016DB00E024FFF090010EE034FFF090010A740754
:1016EB00F0A374D0F0A37401F090010EE07002A38C
:1016FB00E0700C90010EF0A3740AF0A37401F0D00B
:08170B00D0D082D083D0E0327F
:03000B000215DDFE
:1015DD00C0E0C083C082C0D075D000C006C00790E7
:1015ED0000FDE07027C2CC04F0900107E0FEA3E0FF
:1015FD00FFC374FF9F900112F074FF9E900111F0D4
:10160D00A3E0F58A900111E0F58C8036D2CC9000E4
:10161D00FDE4F0900108E0245CFE900107E034F752
:10162D00900113F0A3CEF0900114E0F58A90011310
:10163D00E0F58C9000F9E0FFA3E0900107CFF0A357
:0F164D00EFF0D007D006D0D0D082D083D0E032DB
:10165C0055617274496E69740D0A0054696D657236
:10166C00496E69740D0A00696E3D20252E33662C77
:10167C006F75743D20252E33662C6C6F6375723D2F
:10168C0020252E33660D0A006C6F6E6750726F5FEB
:10169C005F0D0A00444344435F444953454E0D0AD1
:0F16AC0000444344435F454E41424C450D0A0004
:101264005E0069419000000000000000003FCCCC0B
:10127400CD3F8000000000000000000000000000DE
:101284000046004E0000000000005400550000001D
:10129400000000000000000000000000000000004A
:1012A4000050009600FF0000FF00FF0F00F00F0F3A
:1012B4000F00FF0A4400A640A00000450091000171
:1012C4000C0A0D5400043F800000431C33F84329EA
:1012D4006F5C43296F5C431C33F8410002004100FA
:0212E400030005
:1017130043B20853B1F7D2B34392045391FBC2923D
:101723004392085391F7C2934392105391EFC2949B
:101733004392205391DFD29553B27F53B17FD2B7F7
:101743005392BF5391BFC29643CA1053C9EFC2CC41
:0917530043B24053B1BFD2B622EB
:0C18DE007F1D7E0E7D36DDFEDEFCDFFA95
:0118EA0022DB
:10179B001217131218F61218971218DE7BFF7A160F
:1017AB00795C7F031217D712186E1218597BFF7AC8
:1017BB001679677F031217D790010A7407F0A37489
:0C17CB00D0F090010EE4F0A3740AF022AC
:03001E00020000DD
:0612E70090014712075FB1
:1012ED0090015212076B0000000090015612076B1F
:1012FD00000000007F007E007D807C3F900147E074
:10130D00F8A3E0F9A3E0FAA3E0FB12002DA804A9CD
:10131D0005AA06AB07E4FFFE7D807C3F12022790F5
:10132D00015212075F900152E0F8A3E0F9A3E0FA31
:10133D00A3E0FBE4FFFE7D807C3F12002990014F6E
:10134D00E0FBA3E0FAA3E0F912073F12011E9001A2
:10135D005612075F90014BE0FCA3E0FDA3E0FEA356
:10136D00E0FF900152E0F8A3E0F9A3E0FAA3E0FB5F
:10137D0012011E900156E0F8A3E0F9A3E0FAA3E0F4
:10138D00FB12002D90014FE0FBA3E0FAA3E0F90260
:02139D00072522
:1014D10012180A90001812075F900000E0FBA3E0C9
:1014E100FAA3E0F912062EFFAEF0EE3395E0FDFC13
:1014F100E4FB7A04F9F8120678EC12033D90001827
:10150100E0F8A3E0F9A3E0FAA3E0FB1202279001BF
:101511004B12075F90014F7401F0A37400F0A374A4
:10152100A6F07F007E007DA07C411212E7E4FBFA69
:10153100797A78449000A6E0FCA3E0FDA3E0FEA345
:10154100E0FF1202277BF27A41797F783F12011E78
:0615510090008A02075F12
:081909007F1D7EB7DEFEDFFC4E
:0119110022B3
:10100800E4900160F0900160E0FFC394057480945F
:10101800805026EF75F002A42444F9740035F0FAE4
:101028007B01E02491F582E43400F583E0FD12179A
:101038005C900160E004F080CC900046E0FCA3E006
:10104800FDEC12034290008AE0F8A3E0F9A3E0FA6D
:10105800A3E0FB12011E900008E0F8A3E0F9A3E06A
:10106800FAA3E0FB12022790005512075F9000498F
:10107800E024F1FD900048E034FDFC1203429000AA
:101088008AE0F8A3E0F9A3E0FAA3E0FB12011E90BE
:10109800000CE0F8A3E0F9A3E0FAA3E0FB120227B2
:1010A80090005D12075F90004BE024F1FD90004A2C
:1010B800E034FDFC12034290008AE0F8A3E0F9A3B3
:1010C800E0FAA3E0FB12011E900010E0F8A3E0F99B
:1010D800A3E0FAA3E0FB12022790006112075F90D9
:1010E800004CE0FCA3E0FDEC12034290008AE0F81B
:1010F800A3E0F9A3E0FAA3E0FB12011E900014E0BC
:10110800F8A3E0F9A3E0FAA3E0FB12022790005944
:0311180002075F6C
:1015570090010CE07002FF22E490010CF01214D10C
:101567001210087B017A007955120CE77B017A008B
:10157700795512111B9000AE74FFF0A37416F0A3F7
:101587007473F0900055E0FCA3E0FDA3E0FEA3E038
:10159700FF9000B112075F900059E0FCA3E0FDA3A4
:1015A700E0FEA3E0FF9000B512075F900061E0FC4A
:1015B700A3E0FDA3E0FEA3E0FF9000B912075F7B65
:1015C700017A00791C1208C97B017A00791C7F0314
:0615D7001217D77F01226C
:1018AB00900110E0600DE4F07BFF7A1679947F03D2
:0418BB001217D72207
:100EBD00900088E0FEA3E0FFC374329F900072F0B3
:100ECD0074029E900071F090007FE0F8A3E0F9A30A
:100EDD00E0FAA3E0FBC000C001C002C003900071A6
:100EED00E0FEA3E0FF7C007D0A120606AC06AD070E
:100EFD00EC120342D003D002D001D00012002D908D
:100F0D00007F12075F900105E0FCA3E0FDE41203F2
:100F1D004290007FE0F8A3E0F9A3E0FAA3E0FB1212
:100F2D0002C46007400590010580229000FFE0FC9F
:100F3D00A3E0FDE412034290007FE0F8A3E0F9A3E3
:100F4D00E0FAA3E0FB1202C450129000FFE0FCA3F4
:100F5D00E0FDE412034290007F12075F900071E004
:100F6D00FEA3E0FF7C007D05120606AC06AD07EC86
:100F7D0012034290007FE0F8A3E0F9A3E0FAA3E0AA
:100F8D00FB12002D90007B12075F900105E0FCA382
:100F9D00E0FDE412034290007BE0F8A3E0F9A3E04A
:100FAD00FAA3E0FB1202C460074005900105802200
:100FBD009000FFE0FCA3E0FDE412034290007FE00F
:100FCD00F8A3E0F9A3E0FAA3E0FB1202C4501290DB
:100FDD0000FFE0FCA3E0FDE412034290007B12074A
:100FED005F90007BE0FCA3E0FDA3E0FEA3E0FF1219
:0B0FFD00037B9000F9EEF0A3EFF02260
:0B0CE70090015AEBF0A3EAF0A3E9F043
:100CF2009000081206F57B9A7A997999783E120249
:100D0200C4600D400BE490008EF090004FF0D29240
:100D120090015AE0FBA3E0FAA3E0F9900008120662
:100D2200F5E4FBFAF9783F1202C4500C90008E747D
:100D320001F090004FF0C29290015AE0FBA3E0FA5A
:100D4200A3E0F990000C1206F57B9A7A99799978CA
:100D52003E1202C4600F400D90008F7401F0E490C7
:100D6200004EF0D29590015AE0FBA3E0FAA3E0F91D
:100D720090000C1206F57BCD7ACC79CC783E12022B
:100D8200C4500CE490008FF090004E04F0C2959095
:100D9200015AE0FBA3E0FAA3E0F99000041206F581
:100DA2007BCD7ACC792C78411202C4501290008EFD
:100DB200E075F008A42496F582E43400020E4C900B
:100DC200015AE0FBA3E0FAA3E0F99000041206F551
:100DD2007B667A66791E78411202C4501190008EA9
:100DE200E075F008A42498F582E43400805C900158
:100DF2005AE0FBA3E0FAA3E0F99000041206F57BA7
:100E02008F7AC2791578411202C4501190008EE097
:100E120075F008A4249AF582E43400802D90015ADA
:100E2200E0FBA3E0FAA3E0F99000041206F57BECE4
:100E32007A51791478411202C4501D90008EE075E7
:100E4200F008A4249CF582E43400F583E0FFA3E0DB
:100E5200900052CFF0A3EFF0900052E0FEA3E0909A
:100E62000087F0EE900054F0900002E0FF900087BF
:100E7200E0FEA807088002C313D8FC900000F0909F
:100E82000054E0FEA807088002C313D8FC900001BA
:100E9200F0A3E004F0E064087001F0900000E05478
:100EA2000164017004D2948002C294900001E05463
:0A0EB2000164017003D29322C29381
:010EBC002213
:0A18EB0000007F487ECDDEFEDFFC2A
:0118F50022D0
:0B111B0090015DEBF0A3EAF0A3E9F007
:101126001206D5E4FBFA796078411202C4601840D1
:1011360016C296D2B77BFF7A1679A07F031217D70D
:10114600E4900003F0803C90015DE0FBA3E0FAA38D
:10115600E0F91206D5E4FBFA798078411202C45010
:1011660022D2967BFF7A1679AD7F031217D79000AD
:1011760003E004F0E0D3940A74809480400574057B
:10118600F0C2B790015DE0FBA3E0FAA3E0F990009E
:10119600041206F57BCD7ACC795478411202C4400C
:1011A6001F90015DE0FBA3E0FAA3E0F990000412B2
:1011B60006F5E4FBFA791078411202C46005400393
:1011C600C2B62290015DE0FBA3E0FAA3E0F990002D
:1011D600041206F57B667A66794E78411202C4607F
:1011E60021401F90015DE0FBA3E0FAA3E0F9900027
:1011F600041206F5E4FBFA791878411202C450028B
:02120600D2B65E
:0112080022C3
:100026000203E7E86480F8E933E83360110460F01E
:10003600ED33EC337009E8FCE9FDEAFEEBFF220440
:1000460060DED3EB9FEA9EE99DE8C2E78CF0C2F73B
:1000560095F0400CE8CCF8E9CDF9EACEFAEBCFFB07
:100066001203B285D0F05804700320D5B3E80470AB
:10007600075002B2D50203F192D5EC0460F7E4CC46
:10008600C0E0C398F8603B94186008400DD0E0FBD0
:100096000203C9E4FBFAC9FC8028E830E406E4C997
:1000A600FBE4CAFCE830E305E4C9CACBFCE8540724
:1000B6006010F8C3E913F9EA13FAEB13FBEC13FC2F
:1000C600D8F130F52FC3E49CFCEF9BFFEE9AFEEDD2
:1000D60099FDD0E0FBEF4E4D4C701222DB0302037C
:1000E600EEEC2CFCEF33FFEE33FEED33FDED30E7A7
:1000F600EB0203C9EF2BFFEE3AFEED39FDD0E0FB34
:1001060050130BBB00030203F1ED13FDEE13FEEFDC
:0801160013FFEC13FC0203C906
:10011E00EC4D6011E8497017ED33EC3304600DE4DB
:10012E00FCFFFEFD22E933E8330470F80203E71208
:10013E0003B258046009E4CC248150062850090209
:10014E0003F12840030203EEC0E0EB4A7044B9808D
:10015E0006D0E0FB0203DDEF4E701CBD8008EBFF06
:10016E00EAFEE9FD80EBE98DF0A4FEE5F002020760
:10017E00E9CDF9EAFEEBFFEF89F0A4FCE5F0CE89BC
:10018E00F0A42EFFE435F0CD89F0A42DFEE435F079
:10019E008067EF4E7005BD80D780C3EF8BF0A4ACA7
:1001AE00F0EE8BF0A42CFCE435F0F8EF8AF0A42CE2
:1001BE00E5F038FCE433CB8DF0A42CFCE5F03BF8F5
:1001CE00EE8AF0A42CFCE5F038F8E433CF89F0A4E5
:1001DE002CFCE5F038CF3400CE89F0A42FFFE5F0EB
:1001EE003EFEE433C98DF0A42EFEE5F039CD8AF043
:1001FE00A42FFFE5F03EFEE43DFD33D0E0FB5007BB
:10020E000BBB000F0203F1EC2CFCEF33FFEE33FEC1
:06021E00ED33FD0203C9EF
:100224000203F1EC5D046005E8590470030203E77E
:100234001203B2580460F6EC4860F2EC7004FDFE60
:10024400FF22C860DB2481C85009C39860025006AD
:100254000203EE9850CAF582E9294B4A7005AB8235
:100264000203DD75F0007C1A7880C3EF9BEE9AEDF3
:1002740099400DC3EF9BFFEE9AFEED99FDE842F025
:10028400DC23ACF0D0E0FFD0E0FED0E0FDAB822078
:10029400E7101BEB60BAEC2CFCEF33FFEE33FEED02
:1002A40033FD0203C9E803F830E705C0F075F00038
:1002B400EF2FFFEE33FEED33FD40B830E7C280AAE6
:1002C40074F8CC6480CCC86480C8F58204604FC3E1
:1002D400EB9FF5F0EA9E42F0E99D42F0E89C45F080
:1002E400603C501DE5825FFFE582D313CB5BCBF40A
:1002F4002B5582FB50280ABA002409B90020088033
:100304001DE5825BFBE582D313CF5FCFF4C3132FCC
:100314005582FF50090EBE00050DBD00010CC3EB54
:100324009FF5F0EA9E42F0E99D42F0E89C45F060BA
:0903340007CC4820E701B3EC22DC
:10033D0075F020800E75F010800575F0087D007E3B
:10034D00007F003392D530D5031206C7EC33401031
:10035D00EF33FFEE33FEED33FDEC33FCD5F0ED2244
:0E036D00E5F0247EA2D513CC92E7CDCEFF2280
:10037B00EDD2E7CD33EC3392D524814006E4FFFE7A
:10038B00FDFC22FCE4CFCECDCC24E0501174FF80D9
:10039B00EDC3CC13CCCD13CDCE13CECF13CF047076
:0703AB00F030D5DE0206C7A9
:10086400E50824AEF582E43400F583E0050822901F
:1008740000AB3007039000AEE475F00112079C0250
:1008840005AE2000E97F2ED2008018EF540F24908B
:10089400D43440D4FF30040BEF24BFB41A00500307
:1008A4002461FFE50960021509050CE50C700205D9
:1008B4000B30070E9000ABE475F00112079CEF02B9
:1008C40005F40218327403D2078003E4C207F50862
:1008D4009000AB1207B3E4F509F50BF50CE50960DC
:1008E400077F201208A780F5750AFFC201C200C263
:1008F40002C203C205C206C208120873FF700D309B
:1009040007057F001208B8AF0CAE0B22B4255FC2F6
:10091400D5C204120873FF24D0B40A00501A75F02B
:100924000A780930D50508B6FF0106C6A426F620C4
:10093400D5047002D20380D924CFB41A00EF500436
:10094400C2E5D204020BAAD20180C6D20080C0D272
:100954000280BCD2D580BAD20580B47F201208A709
:100964002002077401B5090040F1120864FF12085F
:10097400A70208E1D208D2068095120864FB120887
:1009840064FA120864F94A4B700679A87A0C7BFF62
:1009940020022EE509602A7E008E827583001205EE
:1009A400C760060EEE650A70F0C2D5EBC0E0EAC07F
:1009B400E0E9C0E0EE120C0BD0E0F9D0E0FAD0E0B0
:1009C400FB1205AEFF60AAEBC0E0EAC0E0E9C0E0BC
:1009D4001208A7D0E02401F9D0E03400FAD0E0FBFB
:1009E400E50A0460DCD50AD98087D20280A2120B02
:1009F400ED60F7E50A7001041203FCA90A600DE535
:100A04000A600914F50A120C95EF60F3EA30E70264
:100A1400F404C3995079EAF4250A0430E701E404A4
:100A2400F50A800D120BED60C1EA050A250A1203CE
:100A3400FCEA9000DAF030E701E4250A04D50A0460
:100A440020050114120C0BE4C0E0120C959000DA9E
:100A5400E0601320E70714F012088F802204F0D01E
:100A6400E014C0E07F0012088FE50A6007120886D0
:100A7400150A800B300503120886D0E00208E1D085
:100A8400E00480C4120BED609EE50A041203FC909E
:100A940000DAEAF0E50A2005026001042404120CDD
:010AA4000B46
:100AA50074FF04C0E0120C9512088FE50A200502B8
:100AB5006003120886D0E0B50AE87F4512089990D0
:100AC50000DAE07F2B30E7047F2DF404C0E0120844
:100AD500A7D0E075F00A84C0F0120890D0E01208A3
:100AE500900208E1791080027908C206C2088008E0
:100AF500D2D5790A8004790AC2D5E50A047002F5CF
:100B05000AE4FAFDFEFF120864FC7B0820011312BB
:100B15000864FD7B1030000A120864FE120864FFA9
:100B25007B20EC3382D592D55013C3E43000069F69
:100B3500FFE49EFEE42001039DFDE49CFCE4CBF86C
:100B4500C201EC700CCFCECDCCE824F8F870F38060
:100B550017C3EF33FFEE33FEED33FDEC33FCEB3320
:100B6500FB994002FB0FD8E9EB300105F8D0E0C452
:100B750048B201C0E00AEC4D4E4F78207B0070C2B0
:100B8500EAB50A0040BCC0E0120C0DD0F0D0E02060
:100B95000104C4C0E0C4B201C0F0120890D0F0D581
:100BA500F0EB0208E11207BC097E530AE958094F28
:100BB5004C094B420AED4F0AF5440AF549096443CD
:100BC5000AFB550A28460A884509F2470CC8500908
:100BD500532D09572E097A2B095B230978200CB16F
:100BE5002A09134800000972E50AB4FF03750A06CD
:100BF500120864FC120864FD120864FE120864FF02
:100C05009000D3020439790AA2D5200314300509CE
:100C1500B910020404B9080104A2D5200602500146
:100C2500042002689202B509005034C0E07F2030EC
:100C350003197F30A20272067205500F120C64C2AE
:100C450002C206C205C2087F30800F300503E9C025
:100C5500E01208A7300503D0E0F9D0E0B509CC30A3
:100C650005177F30B9100C1208A77F583004077F8D
:100C7500788003B908031208A73002057F2D020802
:100C8500A77F202008F87F2B2006F322920280CF31
:100C95007F00B40700500B24D3F582E43400F583BC
:100CA500E0FF22286E756C6C2900D20112086430B1
:100CB50001F8C201780930D50108F60209132D5053
:100CC5004349581208642403B405004001E4900C1C
:100CD500C393120898743A120898D203750904024E
:020CE5000AE91A
:1003B200E9D2E7C933E833F892D5EDD2E7CD33EC91
:0703C20033FC5002B2D5220A
:1003C900EC30E7100FBF000C0EBE00080DBD000495
:1003D9000BEB6014A2D5EB13FCED92E7FD2274FF41
:1003E900FCFDFEFF22E480F8A2D574FF13FC7D809A
:0303F900E480EFAE
:1003FC00F920E73624F950037907E4F42402FBE5ED
:10040C0082158270021583DBF6E024FB501BE96039
:10041C0014E4F0E582158270021583E004F0B40A4E
:0D042C0008E4F0D9EE7401F00A22C2D522D6
:10043900ED33EC3392D5FA602AB4FF33EDC2E77B92
:10044900FF60067A04795EE4227A04796720D5048C
:100459007A047962224E614E002B494E46002D499D
:100469004E4600E47A08F0A3DAFC7B00740722C048
:1004790083C082ECC0E0EDC0E0EEC0E0EFC0E0EA8E
:1004890075F010A4CAABF075F04DA42BFBE435F060
:10049900FCEA2410FAEB34C5FBEC34D9FCEDC2E7D5
:1004A900FF75F056A4F42411C5F0F434C58FF0A4F7
:1004B9002AE5F03BE43CF020E71412056ED0E0FF9A
:1004C900D0E0FED0E0FDD0E0FC1202278014F40455
:1004D90012056ED0E0FFD0E0FED0E0FDD0E0FC12C6
:1004E900011ED082D083E0FAEDD2E7CD33EC33247C
:1004F90082FBE4C3CF33CFCE33CECD33CD33DBF361
:100509007B0775F00A846004F0A31B0AE5F0F0A3E9
:100519008FF0740AA4FFACF08EF0740AA42CFEAC20
:10052900F050010C8DF0740AA42CFDE435F0F0A311
:05053900DBDE74072267
:10053E003F8000004120000042C80000447A0000C5
:10054E00461C400047C35000497424004B18968047
:10055E004CBEBC205A0E1BCA6753C21C749DC5AE3E
:10056E00FB60065407601C232312059CEB54386075
:10057E000912058812059712011EECF8EDF9EEFA34
:10058E00EFCB22EB12059780F1543803241C900513
:10059E003EFE93FC0EEE93FD0EEE930ECE93FF22D7
:03000000021445A2
:0C144500787FE4F6D8FD75812102148C3C
:1005AE00BB010689828A83E0225002E722BBFE024B
:0905BE00E32289828A83E493227E
:1005C700BB010CE58229F582E5833AF583E02250E9
:1005D70006E92582F8E622BBFE06E92582F8E22233
:0D05E700E58229F582E5833AF583E493224D
:1005F400BB010689828A83F0225002F722BBFE01E6
:02060400F322DF
:10060600EF8DF0A4A8F0CF8CF0A428CE8DF0A42E08
:02061600FE22C2
:10061800A3F8E0C5F025F0F0E58215827002158395
:06062800E0C838F0E822F2
:10062E00BB010A89828A83E0F5F0A3E02250068797
:10063E00F009E71922BBFE07E3F5F009E319228959
:0B064E00828A83E493F5F0740193228C
:10065900BB010A89828A83F0E5F0A3F0225006F7EC
:0F06690009A7F01922BBFE06F3E5F009F31922E9
:10067800E88FF0A4CC8BF0A42CFCE98EF0A42CFC21
:100688008AF0EDA42CFCEA8EF0A4CDA8F08BF0A49F
:100698002DCC3825F0FDE98FF0A42CCD35F0FCEBFE
:1006A8008EF0A4FEA9F0EB8FF0A4CFC5F02ECD39C3
:0F06B800FEE43CFCEAA42DCE35F0FDE43CFC2230
:0E06C700C3E49FFFE49EFEE49DFDE49CFC2244
:1006D500BB010789828A830207EE5005E9F8020704
:1006E500E2BBFE05E9F80207FA89828A8302080659
:1006F500BB010DE58229F582E5833AF5830207EE14
:100705005007E92582F80207E2BBFE07E92582F8D2
:100715000207FAE58229F582E5833AF583020806A0
:10072500BB010789828A8302075F5005E9F8020841
:0A0735004CBBFE05E9F8020858224B
:10073F00BB010789828A830208235005E9F8020862
:10074F0016BBFE05E9F802082F89828A8302083C4E
:0C075F00ECF0A3EDF0A3EEF0A3EFF0220D
:10076B00A8828583F0D083D082120782120782126F
:10077B000782120782E473E493A3C583C5F0C58394
:10078B00C8C582C8F0A3C583C5F0C583C8C582C8D8
:01079B00223B
:10079C00F8E0FBA3A3E0F925F0F0E58215827002E6
:0707AC001583E0FA38F0228A
:0907B300EBF0A3EAF0A3E9F02247
:1007BC00D083D082F8E4937012740193700DA3A3CC
:1007CC0093F8740193F5828883E4737402936860E0
:0607DC00EFA3A3A380DFE0
:10183200EFB40A07740D12183D740A309811A89972
:10184200B8130CC2983098FDA899C298B811F63016
:0718520099FDC299F59922EE
:1014510002139FE493A3F8E493A34003F68001F2FF
:1014610008DFF48029E493A3F85407240CC8C3339C
:10147100C4540F4420C8834004F456800146F6DF6B
:10148100E4800B0102040810204080901209E47EE0
:10149100019360BCA3FF543F30E509541FFEE49360
:1014A100A360010ECF54C025E060A840B8E493A327
:1014B100FAE493A3F8E493A3C8C582C8CAC583CA52
:1014C100F0A3C8C582C8CAC583CADFE9DEE780BE0A
:0112E6000007
:0C07E200E6FC08E6FD08E6FE08E6FF2243
:0C07EE00E0FCA3E0FDA3E0FEA3E0FF227E
:0C07FA00E2FC08E2FD08E2FE08E2FF223B
:10080600E493FC740193FD740293FE740393FF2238
:0D081600E6FB08E6F908E6FA08E6CBF82252
:0C082300E0F8A3E0F9A3E0FAA3E0FB2258
:0D082F00E2FB08E2F908E2FA08E2CBF82249
:10083C00E493F8740193F9740293FA740393FB2212
:0C084C00ECF608EDF608EEF608EFF622D8
:0C085800ECF208EDF208EEF208EFF222DC
:00000001FF
